:020000020000FC
:100000000FEF01B91FEF21E00BE40E942B0010E07D
:1000100022E008E40E942B0011E022E00FE40E949D
:100020002B0012E022E001E40E942B001FEF21E0F0
:100030000E94350002B910E022E00E94350002B9AA
:1000400011E022E00E94350002B912E022E00E9495
:10005000350002B9FFCFF999FECF11BD22BD00BD19
:10006000FA9AF99A0E943C000895F999FECF11BDC1
:1000700022BDF89A00B5089545E05AEF00005A9560
:08008000E9F74A95D1F7089554
:00000001FF
