:020000020000FC
:100000000FEF01B907B905B9002704B922270E94EB
:1000100050002395213029F0223071F0233022271F
:10002000F6CF0FEF02B908B90E94600000E002B9F4
:1000300008B90E946000EBCF01E002B90E946000A5
:1000400003E002B90E94600007E002B90E9460006C
:100050000FE002B90E9460000FE102B90E94600047
:100060000FE302B90E9460000FE702B90E9460002E
:100070000FEF02B90E9460000F3F01F001E002B9EA
:100080000E94600003E002B90E94600007E002B92C
:100090000E9460000FE002B90E946000B8CFB7CFA5
:1000A00012E31899FDCF1A95E1F71AE01A95F1F7C6
:1000B000189905C012E3189BFDCF1A95E1F7089532
:1000C00045E054E66AEF00006A95E9F75A95D1F7E2
:0600D0004A95B9F70895FE
:00000001FF
