:020000020000FC
:100000000FEF01B907B905B9002704B922270E94EB
:1000100055002395213029F0223089F02330222702
:10002000F6CF33B10FEF02B908B90E94600000E0CB
:1000300002B908B90E94600030FDF3CFE8CF01E0BB
:1000400002B90E94600003E002B90E94600007E06C
:1000500002B90E9460000FE002B90E9460000FE147
:1000600002B90E9460000FE302B90E9460000FE72E
:1000700002B90E9460000FEF02B90E9460000F3FBA
:1000800001F001E002B90E94600003E002B90E94A1
:10009000600007E002B90E9460000FE002B90E9410
:1000A00060001899CCCFB3CFB2CF12E31899FDCF2F
:1000B0001A95E1F712E3189BFDCF1A95E1F7089521
:1000C00045E054E66AEF00006A95E9F75A95D1F7E2
:0600D0004A95B9F70895FE
:00000001FF
